:020000040800F2
:10000000A8F10020590300081D5E0008B93200085D
:100010001B5E0008B52000082588000800000000CD
:10002000000000000000000000000000C102000805
:100030002B25000800000000050300080B830008C2
:1000400073030008730300087303000873030008B8
:100050007303000873030008CD2C00087303000825
:10006000052D00083D2D0008752D000873030008BC
:100070007303000873030008730300087303000888
:100080007303000873030008730300087303000878
:10009000730300087303000873030008F12D0008C0
:1000A0007303000873030008730300087303000858
:1000B0007303000871830008AD8300087303000810
:1000C0007303000873030008730300087303000838
:1000D000730300082586000873030008898600085A
:1000E0007303000873030008730300087303000818
:1000F0007303000873030008730300087303000808
:10010000730300089D6C0008E9830008730300086E
:1001100073030008730300082584000873030008B4
:1001200073030008730300087303000873030008D7
:1001300000F002F800F0B4F80AA090E8000C824445
:100140008344AAF10107DA4501D100F0A9F8AFF222
:10015000090EBAE80F0013F0010F18BFFB1A43F0A5
:1001600001031847F03C0100103D01000A444FF024
:10017000000C10F8013B13F0070408BF10F8014B06
:100180001D1108BF10F8015B641E05D010F8016B4B
:10019000641E01F8016BF9D113F0080F1EBF10F8AF
:1001A000014BAD1C0C1B09D16D1E58BF01F801CBD2
:1001B000FAD505E014F8016B01F8016B6D1EF9D555
:1001C0009142D6D37047000000230024002500266A
:1001D000103A28BF78C1FBD8520728BF30C148BFAA
:1001E0000B6070476E2900F0A685702900F05782D9
:1001F000662910F09487652910F09187672910F01F
:100200008E876129AFF3008003681B0A28BF41F085
:100210008001692900F0C881642900F0C581752931
:1002200000F0C2816F2900F0A786782900F02382B0
:10023000E92900F04186E42900F03E86F52900F026
:100240003B86EF2900F0A486F82900F0228203689B
:10025000DB0928BF41F08001632900F0B0857329D4
:1002600000F0B585E32901F0B181F32901F0B681F1
:10027000002070471FB59DE8030000F039FC01F035
:1002800051FA0400002000210FF0CAFE401C6060FB
:10029000002000210FF0DAFEE0601FBD10B510BD98
:1002A00001F01AFA1146FFF7E5FF0BF077FB01F0BA
:1002B000F9FA03B4FFF7F2FF03BC08F03EFD0000BB
:1002C000224B19680868B0E8F00F80F30988BFF383
:1002D0006F8F4FF0000080F311884EF00D0E7047C5
:1002E0000000000006480068006880F3088862B6D5
:1002F00061B6BFF34F8FBFF36F8F00DF00BF00BF4A
:1003000008ED00E0EFF30980BFF36F8F0F4B1A6821
:1003100020E9F00F106008B54FF0500080F311880D
:10032000BFF34F8FBFF36F8F0FF090F84FF00000C7
:1003300080F31188BDE8084019680868B0E8F00F3C
:1003400080F30988BFF36F8F704700BF9C000020C7
:10035000EFF30580704700000948804709480047CF
:10036000FEE7FEE7FEE7FEE7FEE7FEE7FEE7FEE765
:10037000FEE7FEE704480549054A064B70470000C2
:100380002183000831010008A8EB0020A8F100201B
:10039000A8ED0020A8ED0020704770B5064600F0DB
:1003A00087FB056806F10B0020F00704B4429CBFF0
:1003B000002070BD2B466A68BAB11068A04210D305
:1003C00004F1080188423CBF5068586007D3516867
:1003D000101941601168091B016058601460101DFC
:1003E00070BD13465268002AE7D12146284600F026
:1003F0006BFB0028DED170BD70B50446051F00F010
:1004000057FB0068002C14BF446870BD002C18BF57
:10041000AC423CBF20466468F8D301680A18AA427F
:1004200018BF456003D12A68054611440160286859
:100430004119A1421CBF6C6070BD61686960216890
:100440000844286070BD10B54C1084EA530404D5EC
:100450004042C1F1000138BF491E1B4204D552423F
:10046000C3F1000338BF5B1E00F078FB14F0804F2F
:1004700004D04042C1F1000138BF491E14F0004FC2
:1004800004D05242C3F1000338BF5B1E10BD000010
:100490007CB51D4616460C00009001D02044401E3D
:1004A000074B7B442A4669460190304600F05DFCCC
:1004B00005461CB10020694600F06AFC28467CBD58
:1004C000F50800000FB4044910B503AA029800F023
:1004D00083FC10BC5DF814FB840000200FB41CB535
:1004E000084B06AA7B4469460090059800F03DFC45
:1004F00004460020694600F04BFC20461CBC5DF819
:1005000014FB0000A908000070B504468569006866
:10051000C10601D5302600E02026C00707D070BDF7
:10052000D4E9012130469047206A401C20626D1EAC
:10053000F6D570BD70B5044685690078C00707D14F
:1005400070BDD4E9012120209047206A401C206220
:100550006D1EF6D570BD70B50C460546012A05D056
:100560002878800600D5EA69002302E0012305E02F
:100570005B1C934202D2E05C0028F9D1A869E6181E
:10058000C01AA861286A184428622846FFF7BCFFF1
:1005900004E0D5E9012114F8010B9047B442F8D3E7
:1005A0002846FFF7C7FF70BD2DE9F041064600243D
:1005B00010687529314616A510D000F051FB0028AF
:1005C00002DA404213A507E031688A0701D512A577
:1005D00002E0490704D511A5012401E000F049FB20
:1005E00000210A2206F1240709E0B0FBF2FCB0FB6F
:1005F000F2F302FB1C00303078541846491C0028E6
:10060000F3D123462A463046BDE8F04100F03ABB1C
:10061000000000002D0000002B0000002000000062
:10062000F0B40D460188090502D5214C7C4402E056
:100630001F4C7C440E34002100F1240608E002F037
:100640000F071209E75D42EA03721B097754491C40
:1006500052EA0307F3D102780023120704D5702D64
:1006600006D009B1022311342246F0BC00F00ABBC7
:1006700001231034F8E770B504460D462146106892
:1006800000F0F7FA024629462046BDE870400023F4
:10069000C6E7D21D22F00703D3E90023C0E70368B1
:1006A000126843F0200303600823C3610023B7E707
:1006B000C83401002DE9F05F894604464FF0000A76
:1006C000DFF874B1FB44C0F820A02046E1688847F9
:1006D000002874D0252806D0D4E901219047206A4B
:1006E000401C2062F1E700265F462046E16888470B
:1006F0002028054607DB312D05D2781910F8200C8B
:1007000008B10643F1E7B00701D526F00406C4F8A6
:100710001CA00027C4F818A02A2D09D0284608F0EC
:1007200005FB38B304EB8708303DC8F8185019E0D2
:1007300059F8041B204604EB87029161E168884761
:10074000012F054618D1E069002820DA26F020069E
:100750001DE0D8F8180000EB800005EB40003038B1
:10076000C8F818002046E1688847054608F0DEFA18
:100770000028EED1012F0AD02E2D08D12046E168A5
:1007800088477F1C0546022F46F02006C4DBA0697F
:10079000002803DA404246F00106A061F00701D0CC
:1007A00026F010066C2D0BD0682D09D04C2D39D0B9
:1007B0006A2D35D0742D35D07A2D33D016E038E03F
:1007C000E1682F4620468847B842054609D16C2F7C
:1007D00026D04FF48060E1680643204688470546EE
:1007E00004E06C2F1AD04FF4807006430DB3A5F1CE
:1007F0004100192802D8203546F400664A462946A9
:10080000204626604E46FFF7EDFC80B101280BD054
:10081000F61D26F0070000F1080956E74020E4E73E
:100820008020D8E70020D6E706F104094DE72846E6
:1008300052E7206ABDE8F09F5834010070B50646C3
:1008400000F03AF90468054630460A22002100F01B
:10085000A9FB2C6070BD401ECAB210F8011F8A426D
:1008600002D00029F9D10020704710B5431E13F8BB
:10087000014F002CFBD105E011F8014B002C03F8CF
:10088000014B03D0521EF7D20021197010BD30B5B4
:1008900005460B462A4613F8014B12F8010B08B126
:1008A000A042F8D01CB1002802D06D1CF1E7284608
:1008B00030BD40EA010310B59B070FD1042A0DD3C8
:1008C00010C808C9121F9C42F8D020BA19BA884231
:1008D00001D9012010BD4FF0FF3010BD1AB1D30770
:1008E00003D0521C07E0002010BD10F8013B11F8A6
:1008F000014B1B1B07D110F8013B11F8014B1B1BCF
:1009000001D1921EF1D1184610BD10B5431C02E072
:1009100010F8011B71B18107FAD14FF0013202C802
:100920008C1A8C4314EAC211F9D0C01A0A0603D0FB
:10093000C01E10BDC01A10BD0A0401D0801E10BD1B
:100940000902FCD0401E10BD032A40F2308010F096
:10095000030C00F0158011F8013BBCF1020F62445A
:1009600098BF11F801CB00F8013B38BF11F8013BEB
:10097000A2F1040298BF00F801CB38BF00F8013B98
:1009800011F0030300F04683083AC0F0088051F8E4
:10099000043B083A51F804CBA0E80810F5E7121D13
:1009A0005CBF51F8043B40F8043BAFF30080D20732
:1009B00024BF11F8013B11F801CB48BF11F8012BFE
:1009C00024BF00F8013B00F801CB48BF00F8012B21
:1009D000704702F0FF0343EA032242EA024200F0BA
:1009E00002B84FF000020429C0F0128010F0030C8E
:1009F00000F04483CCF1040CBCF1020F18BF00F8E6
:100A0000012BA8BF20F8022BA1EB0C0100F036BB94
:100A10005FEAC17C24BF00F8012B00F8012B48BF1E
:100A200000F8012B704700004FF0013C50F8042BF8
:100A300051F8043B9A4221D1A2EB0C03934313EAF1
:100A4000CC1317D150F8042B51F8043B9A4215D11E
:100A5000A2EB0C03934313EACC130BD150F8042BF5
:100A600051F8043B9A4209D1A2EB0C03934313EAD9
:100A7000CC13DBD04FF00000704700BFD01A01BA92
:100A8000B1FA81F101F0180122FA01F0CB40C1F175
:100A90002001DBB2C0B2C01A2CFA01F3D11A914383
:100AA00011EAC311E6D1704770477047704770472D
:100AB000004870474CEB00200048704744EB002092
:100AC000704770477047704738B504460A460020A3
:100AD0006946AFF30080002808BF38BD0246009980
:100AE000204600F0FDFA012038BD012000F0EDBDE8
:100AF000F8B5AFF30080054600200C46102000BF7B
:100B00000646A819A0420DD9324669460020AFF327
:100B10000080070008BF00F0D8FD0098A04218BF71
:100B20000546C419FFF7C4FF05600746F01D20F015
:100B300007004619284600F00AF8B44208BFF8BD7D
:100B4000A21B31463868BDE8F84000F0C9BA002160
:100B50000160C0E9011070471020704753EA020C91
:100B600000F069802DE9F04B4FF00006002B1FBF0D
:100B7000B3FA83F503FA05F424FA05F65E4012BFD2
:100B80001643B2FA82F502FA05F4C5F120051EBF3C
:100B900022FA05FC44EA0C04203556EA044C4FEADC
:100BA000144418BF641C4FF000084FF00009904235
:100BB00071EB030C39D3002919BFB1FA81F701FA9F
:100BC00007F6B0FA80F700FA07F6C7F120071EBF54
:100BD00020FA07FC46EA0C062037B6FBF4FCA7EB2C
:100BE0000507103F07F01F0BCBF120060CFA0BFB9B
:100BF0002CFA06F644BFB3460026202FA4BF5E465B
:100C00004FF0000B5BEA060C08BF4FF0010B19EB2D
:100C10000B09ABFB027C48EB0608C01B06FB02CCB1
:100C20000BFB03CC71EB0C01C1E70B4602464146BE
:100C30004846BDE8F08B13B54FF000004FF00001BF
:100C4000AFF30080BDE81C40704710B5FFF734FFDC
:100C5000006810BD10B50446FFF72EFF046010BDFC
:100C600009684A0501D540B27047C905FCD500B2F4
:100C7000704709684A0501D5C0B27047C905FCD55F
:100C800080B270472DE9F0470D46994692460446DA
:100C900000F124080168880604D5E06921F01001FC
:100CA000216000E00120A84201DD471B00E0002791
:100CB000A1697A1902EB0900081AA0612078C00620
:100CC00002D42046FFF720FC002608E0D4E90121E9
:100CD0001AF806009047206A401C761C20624E4598
:100CE000F4DB2078C0060AD52046FFF70DFC06E0AD
:100CF000D4E9012130209047206A401C2062381E30
:100D0000A7F10107F4DC07E0D4E9012118F8050098
:100D10009047206A401C2062281EA5F10105F3DCE3
:100D20002046FFF707FC2078000602D50220BDE828
:100D3000F0870120FBE711680268006A530501D5BE
:100D400008700AE0D30501D5088006E0130603D534
:100D5000C217C1E9000200E00860012070470000EE
:100D600001694A1C02610878704700B58FB0CDE96F
:100D700001310021059105497944CDE9031011465F
:100D80006846FFF797FC0FB000BD0000E5FFFFFFCE
:100D90000A6802F8010B0A607047D1E900239A4201
:100DA00002D2531C0B601070704710B5436913B129
:100DB000AFF3008001E0FFF7CEFB012010BD1278F9
:100DC00000F124010A7000224A700122EDE7116847
:100DD0004FF0FF32E9E70000074B70B50D467B444A
:100DE000FFF7C3FF0446284600F04BFC10B14FF05C
:100DF000FF3070BD204670BD07A500002DE9FF5FE4
:100E000015468A460446DFF8AC80F8440027D8E946
:100E100000103E46CDE9001010E03AF816106A4680
:100E200002A800F032FC411C07D02178890603D5C6
:100E3000E269391891420DD80744761C2078800663
:100E400002D5E069B84205DDAE42E6DB3AF81600AD
:100E50000028E2D1A069C01BA0612046FFF754FB27
:100E6000D8E90010CDE90010002017E03AF818107A
:100E70006A4602A800F009FCB0F1FF3F81460BD0A2
:100E800000250DF1080B05E0D4E901211BF8050050
:100E900090476D1C4D45F7D308F10100B0428046E4
:100EA000E4DB206A384420622046FFF743FBBDE8BC
:100EB000FF9F00007A2D01002DE9F0418046D21DF0
:100EC00022F007020025D2E90002F52915A614D068
:100ED000011E72F1000106DA0023D0EB030063EB80
:100EE000020211A608E0D8F800108B0701D50FA662
:100EF00002E0490701D50EA601251146002408F19C
:100F0000240704E000F006F930323A55641C50EA38
:100F10000102F7D12B46324621464046BDE8F0415A
:100F2000FFF7B0BE000000002D0000002B00000005
:100F30002000000030B4002100F1240408E002F099
:100F40000705D208303542EA4372DB086554491C74
:100F500052EA0305F3D10468002310A2250708D53F
:100F600004F020040C4304D0C46901230CA2641EC5
:100F7000C46130BCFFF786BE10B504462146106838
:100F8000FFF777FE02462046BDE810400023D1E778
:100F9000D21D22F00701D1E90023CBE700000000B9
:100FA000300000002DE9F04791460F468046044688
:100FB000002614F8015B2DB100F08AF80068405D4E
:100FC000C007F6D12B2D02D02D2D18D0641E4A4615
:100FD0003946204600F006FB27B13968A14201D10D
:100FE000C7F800804FF0020471050BD5404200287D
:100FF00003DDFFF761FD0460A007BDE8F08746F45C
:101000008066E4E70028F8DAFFF756FD04606FF029
:101010000040F2E710B5203AC0F00B80B1E818505C
:10102000203AA0E81850B1E81850A0E81850BFF4D2
:10103000F5AF5FEA027C24BFB1E81850A0E8185071
:1010400044BF18C918C0BDE810405FEA827C24BFC5
:1010500051F8043B40F8043B08BF7047D20728BF53
:1010600031F8023B48BF11F8012B28BF20F8023BA2
:1010700048BF00F8012B70474FF0000200B513463F
:1010800094469646203922BFA0E80C50A0E80C50A8
:10109000B1F12001BFF4F7AF090728BFA0E80C5059
:1010A00048BF0CC05DF804EB890028BF40F8042B52
:1010B00008BF704748BF20F8022B11F0804F18BFBF
:1010C00000F8012B704700000048704744EB0020F7
:1010D00010B500F027FB001D10BD00BF45EF00005C
:1010E000034640688C46002818BF88423CBF034630
:1010F0004068F8D318681844884207D00CF1030000
:1011000020F00700001D411A521A0146081D0A600E
:10111000FFF772B930B5B0F10A024FEA900E71F1E3
:1011200000034EEA817EB0EB0E0061EB91014FEAC5
:10113000101E4EEA017E10EB0E0041EB11114FEA3A
:10114000102E4EEA016E10EB0E0041EB11214FEA1A
:10115000104E4EEA014E10EB0E0041EB11414018CB
:1011600041F100014FEAD00040EA41704FEAD1015D
:1011700010EB80054FEA810444EA907444EB0104CB
:101180006D1944EB0404521BA3414FF0000348BF08
:101190000A3200D530BD401C41F1000130BD70471E
:1011A0002DE9FF4F0C461E464FF0FF378BB0D2E9BA
:1011B0000001DDF860800A908A46C1F30A5505B93E
:1011C0003D46002108464FF00000BAF1000F00F440
:1011D000400005DA00EB80004FF4400101EA5000C6
:1011E0004FEA9059B9F1010F00DDB9460A9850EA6B
:1011F0004A000ED044F61050A5F2FF3545432F1497
:10120000B8F1000F1ED07542291E1EDDC9F1000283
:101210001CE0B8F1010F4FF0000001D0302103E0D5
:10122000F24305E02154401CB042FBDB3046002273
:10123000002121540B99C1F80880C1E900200FB0AA
:10124000BDE8F08FBD1B6D1CDEE74A4600DA69423F
:1012500006A800F0B9FA06AB93E8070003AB83E8F1
:10126000070050460A9900F06AFB8DE80700A0F5D8
:1012700000501F3800900398002D09DD42F21F0135
:101280004A46084403A90390684600F0C9FD08E0F7
:10129000A0F500504A461F3803A90390684600F0A5
:1012A000D3FD8DE807000004000C03D04FF0FF30A1
:1012B000410800E01046B8F1000F03D00022009270
:1012C00015461EE0751E05D4FFF724FF3032625527
:1012D0006D1EF9D5B3460122084302D000227F1CBF
:1012E00004E02078302801D100227F1E002A0997CF
:1012F00086D01DE0112D07DAFFF70CFF3032625562
:101300006D1C50EA0102F5D1084302D00098C8B123
:101310000EE00021681E05E0235C625C63542254E9
:10132000401E491C8142F7DBAB46A81B401E0990BA
:10133000002004F80B000B98099AC0F80880C0E957
:10134000002B7CE711264FF0000859E72DE9F04FFC
:1013500088460446D21D22F0070191B0D1E9000170
:10136000CDE90A0107F065FC02460B98C00F01D0D9
:101370002D2007E02068810701D52B2002E02021E5
:1013800001EAC000032A099001D0072A05DB0346C1
:101390004146204600F0CAF90BE12078800601D5CD
:1013A000E06900E00620B8F1650F814606D0B8F18B
:1013B000660F18D0B8F1670F70D131E00020B9F195
:1013C000110F009001DB112301E009F101030AAACA
:1013D00001A90CA8FFF7E4FEDDE90C70002609F175
:1013E0000105834647E001204B4600904FF000473F
:1013F0000AAA01A90CA8FFF7D3FEDDE90DB00C99EC
:101400005D46002610B909F101000D18B9EB050081
:1014100003D4C0F1FF3609F10105A5EB09002BE06B
:10142000B9F1010F01DA4FF001090020B9F1110FF4
:101430000090484601DD112300E003460AAA01A9F5
:101440000CA8FFF7ADFEDDE90C704D460026834683
:10145000207800070AD4AB4500DA5D4601A8012DCB
:1014600004DD411911F8011C302907D04F4502DA7B
:1014700017F1040F04DA012082460FE06D1EEEE73B
:10148000002F02DCED1B3E4403E0781CA84200DD87
:101490007D1CB81B00F1010A4FF0004720780007BF
:1014A00003D4AA4501DB4FF0FF3A0021B7F1004F0A
:1014B0000DF143088DF8431024D002202B23002F78
:1014C00001DA7F422D230A21021EA0F1010000DC77
:1014D0005FB197FBF1FC97FBF1F201FB1C7C174617
:1014E0000CF1300C08F801CDEEE7A8F10100037013
:1014F0002188090501D5452100E06521A0F10108F9
:1015000000F8011C09980FA9A1EB0807FF1D00B105
:101510000120411901EBEA70A1693844081A401E04
:10152000A0612078C00602D42046FEF7EDFF09989E
:1015300028B1D4E901219047206A401C206220781C
:10154000C00622D52046FEF7DFFF1EE0002E04DB9A
:10155000B34502DD01A8805D00E03020D4E901211F
:101560009047206A401C2062761CAAF101005FEAC5
:10157000000A0AD100F0D6F8C0680168405CD4E9DE
:1015800001219047206A401C2062281EA5F1010518
:10159000DCDC07E0D4E9012118F8010B9047206A50
:1015A000401C2062381EA7F10107F3DC2046FEF73D
:1015B000C1FF032011B043E610B5436913B1AFF387
:1015C000008001E0FFF71AFC012010BD128800F135
:1015D000240182840022C2840122EDE711684FF0C9
:1015E000FF32E9E72DE9F05F824615468B4600277A
:1015F0000AF10104B9460078302801D09DB113E00A
:1016000014F8010B0127782803D0582801D045B1E0
:101610000AE00DB1102D07D1002714F8010B102599
:1016200002E0082500E00A250026B0460EE005FB92
:10163000080005FB06F101271FFA80F801EB1046B0
:10164000B6F5803F00D3B94614F8010B294600F0E7
:10165000ADF80028EBDABBF1000F05D00FB1641E26
:1016600000E05446CBF80040B9F1000F06D0FFF778
:1016700023FA02210160C81EBDE8F09F48EA064037
:10168000FAE7007B00F08000704770B516460C4604
:101690000546FFF71DFD036893F80101012806D0F8
:1016A000FF2C0FD8185D68B101202C7070BDD3F8E5
:1016B00007013246214603F2071303442846BDE8DA
:1016C000704018474FF0FF3070BD10B500F0F6F8CD
:1016D000BDE8104000F0ECB87546FFF7F5FCAE46EB
:1016E00005006946534620F00700854618B020B52E
:1016F000FEF740FEBDE820404FF000064FF0000727
:101700004FF000084FF0000B21F00701AC46ACE8A9
:10171000C009ACE8C009ACE8C009ACE8C0098D4616
:10172000704700000048704764EB00202DE9F0414D
:101730001F46044603260168072A01F4006004DB03
:1017400008B116A505E016A503E008B115A500E04F
:1017500015A521F010002060A069C01EA0610FB186
:10176000401EA0612046FEF7CFFE4FB1D4E9012113
:1017700038469047206A401C2062C01C206206E068
:10178000206AFAE7D4E9012115F8010B9047761E8B
:10179000F8D22046FEF7CEFEBDE8F0814E414E0065
:1017A0006E616E00494E4600696E66003A2800D2AE
:1017B000303820F02002412A01D3A2F137008842BC
:1017C00001D34FF0FF3070472DE9F04781461646B0
:1017D0008AB0334878440DC88DE80D00304878440D
:1017E000801C03AC0DC884E80D0041F69B30084412
:1017F000372190FBF1F290FBF1F5A5F1800501FB9B
:1018000012041B3C02D56442012000E00020DFF8F6
:1018100090A080460027FA44AAF1BE0A0DE0E00736
:1018200009D03246684607EB47010AEB810100F018
:101830000BFB8DE8070064107F1C002CEFD1184FC4
:101840007F44AC3F18E0E80714D007EB04100DF11B
:10185000180A90E80E008AE80E00C068F04201D134
:1018600098190890324606A903A800F0EDFA03ABD8
:1018700083E807006D10641C002DE4D132466946F0
:10188000B8F1000F03A802D000F0CAFA01E000F09E
:10189000DBFAC9E90001C9F808200AB0BDE8F08701
:1018A000D42401000446AFF300802046FEF701FD7A
:1018B000002801D007F041BA7047000010B5012898
:1018C00005D0002103A000F021F8012010BD09A1DE
:1018D000F8E7000053494752544D454D3A204F75A3
:1018E00074206F662068656170206D656D6F727918
:1018F000000000003A2048656170206D656D6F72D0
:101900007920636F727275707465640070B50546F6
:101910000C460A2000E06D1C07F010FA35B128785B
:101920000028F8D102E0641C07F008FA14B120780E
:101930000028F8D1BDE870400A2007F0FFB95FEA3F
:10194000400C08BF91F0000F4FEA8C234FEAC122F0
:1019500043EA51514FEA1C5018BF00F5F0404FEADE
:10196000300018BF41F000415FEA6C5C00F0298054
:10197000BCF1FF3F08BF40F080407047130C06BF2A
:1019800012044FF0100C4FF0000C130E04BF1202A3
:101990000CF1080C130F04BF12010CF1040C930F8F
:1019A00004BF92000CF1020CD30F04BF52000CF1E3
:1019B000010C11464FF00002A0F11F00A0EB0C003B
:1019C000704711F0004F08BF704731F000413FF4FD
:1019D000D5AF0B0C06BF09044FF0100C4FF0000CF4
:1019E0000B0E04BF09020CF1080C0B0F04BF090118
:1019F0000CF1040C8B0F04BF89000CF1020CCB0F0F
:101A000004BF49000CF1010CCCF12003A0EB0C0049
:101A100022FA03F302FA0CF241EA030100F1010099
:101A2000704720F07F4C80EA030023F07F47ACEB47
:101A3000070303F57C5300F0004003F1FF032DE999
:101A400080494FEA154B09B44FEA144325EA0B4E7F
:101A500024EA03480FF2042606EB132749083E78D0
:101A60005FEA320203FB0667C7F5000707FB06F6CD
:101A70004FEA54374FEAD64606F1020607FB066CDA
:101A8000CCF1005C4FEA1C472CEA074C07FB06F43C
:101A90000CFB06F504EB15464FEA961634BF002002
:101AA0004FF000404FEAD13706FB07FC4FEA1C4CD1
:101AB0000CFB0BF7D21B03FB0CF761EB07010CFBD4
:101AC0000EF7B0EB074072EB17420CFB08F734BF80
:101AD000A2EB0742B2EB074261EB17414FEA0C441D
:101AE0004FEA910706FB07FC4FEA1C4C0CFB0BF777
:101AF000B0EBC74072EB573203FB0CF734BFA2EBDD
:101B0000C742B2EBC74261EB57310CFB0EF7B0EBAB
:101B1000C70072EB57720CFB08F734BFA2EBC70289
:101B2000B2EBC70261EB5771039F4FEA816141EA53
:101B3000921104EBCC044FEAD1374FEA826206FBE4
:101B400007FC42EA90124FEA80604FEA1C4C0CFB03
:101B50000BF7D21B03FB0CF761EB07010CFB0EF735
:101B6000B0EB074072EB17420CFB08F734BFA2EB57
:101B70000742B2EB074261EB17414FEA8C554FEA3F
:101B8000910704EB9C2406FB07FC4FEA1C4C0CFB62
:101B90000BF7B0EBC74072EB573203FB0CF734BFC7
:101BA000A2EBC742B2EBC74261EB57310CFB0EF719
:101BB000B0EBC70072EB57720CFB08F734BFA2EB17
:101BC000C702B2EBC70261EB577115EB4C254FEA28
:101BD000816141EA92114FEA82624FEAD13742EACB
:101BE000901206FB07FC44F100044FEA80604FEAC4
:101BF0001C4C0CFB0BF7D21B03FB0CF761EB070132
:101C00000CFB0EF7B0EB074072EB17420CFB08F72A
:101C100034BFA2EB0742B2EB074261EB174115EB71
:101C20001C154FEA813141EA92414FEA823242EA81
:101C300090424FEA80304FEA0C7644F1000448EAC3
:101C400003434EEA0B484FF0000EB2EB080C71EB69
:101C5000030724BF624639464EEB0E0E4FF0000BD1
:101C60000018524149414BEB0B0BB2EB080C71EBE6
:101C700003077BF1000B24BF624639464EEB0E0E84
:101C80004FF0000B0018524149414BEB0B0BB2EBEC
:101C9000080C71EB03077BF1000B24BF6246394649
:101CA0004EEB0E0E51EA020718BF46F0010616EB86
:101CB0000E7655F1000254F1000103D5BDE889010B
:101CC000BDE80088BDE88901BDE80048B619524169
:101CD00041EB0101A3F10103704780807F7E7D7C91
:101CE0007B7A7978777676757473727171706F6EAE
:101CF0006E6D6C6C6B6A6A69686867666665646459
:101D0000636362616160605F5F5E5E5D5D5C5C5BE2
:101D10005B5A5A5959585857575656555555545451
:101D2000535352525251515050504F4F4F4E4E4DAF
:101D30004D4D4C4C4C4B4B4B4A4A4A4949494848FB
:101D4000484747474746464645454544444444433B
:101D500043434342424242414141002B26D4770053
:101D600021D01CB54FEA370703B44FF010004FF0F5
:101D700010014FF000000FBCBDE810400BF1010B4B
:101D8000BBF1010F08BF5FEA170722BF12F1010282
:101D900011F101014FF0004143F1000300F0004058
:101DA00043EA00007047F9D35708DAE746EA0646E7
:101DB00013F1400F4FEA16461FDD13F1200FDFBF6E
:101DC00016430A46002120335B42C8D0C3F12007E6
:101DD00046EA064602FA07F74FEA164646EA0706BB
:101DE000C3F1200722FA03F201FA07F721FA03F1FF
:101DF0004FF0000342EA0702B1E746EA020646EA6C
:101E000006464FEA164646EA0106BCBF46EA0646C3
:101E1000360C4FF000034FF000024FF000019EE738
:101E20002DE9C048934630B491E8380007C831EA3C
:101E3000400C48BF34EA430C03D5FFF7F2FDFFF72F
:101E40008CFFF0BCBDE800882DE9C048934630B453
:101E500091E8380007C810F0804F08BF13F0804F9A
:101E600003D100F005F8FFF778FFF0BCBDE800886B
:101E700020F07F4780EA030023F07F4C07EB0C0340
:101E8000A3F57C5300F00040A3F1FE0392F0000F95
:101E900000F0B38095F0000F00F077802DE9014944
:101EA0004FEA11404FEA144621EA004800FB06FCC5
:101EB00024EA064708FB06F607FB08F800FB07F7CD
:101EC00018EB06484CEB164C4FEA124B18EB074840
:101ED0004FEA15464CEB174022EA0B4E0BFB06FC73
:101EE00025EA06470EFB06F607FB0EFE0BFB07F77F
:101EF0001EEB064E4CEB164C4FF000061EEB074E49
:101F00004CEB174B18EB0B0840F1000018EB0E0BD5
:101F100058EB000840F100008F1A4FF000013CBF61
:101F2000C943661B14BFB5EB040C00213CBFC94379
:101F3000F61B4FEA17444EEA8E0E27EA04454FEA95
:101F40001C4704FB07622CEA074C05FB07F70CFB58
:101F500005F604FB0CFC16EB074642EB174216EBAA
:101F60000C4642EB1C421BEB060658EB02024141B9
:101F700046EA9E0601D5BDE80189B619524141EBFA
:101F80000101A3F10103BDE801894FEA14454FEABD
:101F9000114724EA054621EA074C05FB07F406FB36
:101FA00007F70CFB06F105FB0CFC11EB074144EBBA
:101FB00017444FEA124711EB0C4144EB1C4422EA50
:101FC000074C05FB07F206FB07F70CFB06F605FBC3
:101FD0000CFC16EB074642EB174216EB0C4642EBA5
:101FE0001C456A1854F1000148BF7047B6195241A8
:101FF00041EB0101A3F10103704795F0000F37D0C9
:102000004FEA11424FEA144721EA024624EA074CFC
:1020100002FB07F106FB07F70CFB06F402FB0CFCC6
:1020200014EB074441EB17414FEA154714EB0C44FE
:1020300041EB1C4125EA074C02FB07F506FB07F7BD
:102040000CFB06F602FB0CFC16EB074645EB1745AE
:1020500016EB0C4645EB1C42121951F1000148BF2A
:102060007047B619524141EB0101A3F101037047DA
:102070004FEA14454FEA114724EA054621EA074C86
:1020800005FB07F106FB07F70CFB06F24FF0000615
:1020900005FB0CFC12EB074241EB174112EB0C4223
:1020A00051EB1C4148BF7047921841EB0101A3F16D
:1020B00001037047FEE770B500254FF4803405E05A
:1020C000802004F0D9FD08B144B101E0641EF7D2CC
:1020D00040F2FF5004F08CFD284670BD032070BD17
:1020E00070B5124C0546616B11F0450FFBD0042012
:1020F00004F0C2FD20B1042004F07AFD032070BD7D
:10210000012004F0B9FD20B1012004F071FD01208F
:1021100070BD2069A84201D0102070BD40F2FF5070
:10212000A063606900F0080070BD000000800140FD
:1021300010B500244FF480310E4809E0426B12F0D4
:10214000450F05D009B1500705D5032404200CE044
:10215000491EF3D2F7E7012004F08EFD18B10124E7
:10216000204604F045FD40F2FF5004F041FD2046BA
:1021700010BD00000080014010B50A49486B10F006
:10218000450FFBD0042004F077FD20B1042004F0BB
:102190002FFD032010BD40F2FF5004F029FD002068
:1021A00010BD0000008001402DE9F0411B4C0E469F
:1021B00007460025606B10F0450FFBD0042004F0AB
:1021C0005BFD28B1042004F013FD0320BDE8F0817D
:1021D000012004F051FD20B1012004F009FD01208F
:1021E000F4E72069B84210D140F2FF5004F000FD3E
:1021F000626912F4604F03D0900404D51320E5E720
:10220000100C308007E0500401D51020DEE71004E8
:1022100001D50F20DAE72846D8E70000008001400A
:1022200010B500244FF480320B4809E0416B11F0E7
:10223000450F05D00AB1480705D50324042006E060
:10224000521EF3D2F7E7480603D50024402004F0DD
:10225000CFFC204610BD00000080014070B516483C
:102260000024416821F0F0014160416841F08001A3
:102270004160124D04E0641CE4B2012007F082FBCF
:10228000D5F8240110B1642CF5D30DE0642C0BD2E9
:10229000002404E0641CE4B2012007F073FBD5F8CD
:1022A000240118B1642C04D3012070BD642CF1D337
:1022B000FAE7002070BD0000002001400000244229
:1022C00038B50121080204F0A1FA4FF40074ADF80A
:1022D000004010208DF803000320084D8DF8020007
:1022E0006946284600F01AFF2146284600F097FF6D
:1022F00000F062F8FFF7B2FF38BD00000020014097
:1023000070B50024104D04E0641CE4B2012007F015
:1023100039FBD5F8240108B1642CF5D3002404E07E
:10232000641CE4B2012007F02DFBD5F8240108B9A4
:10233000642CF5D3282007F025FBD5F824010028CC
:1023400000D0012070BD00000000244270B50020C4
:1023500004464006050EFFF7D3FF641C2843E4B291
:10236000082CF6D370BD2DE9FC410E46074600F05F
:1023700023F8FFF773FF10B10120BDE8FC810024B2
:102380006D46FFF7E3FF2855641CE4B2052CF8D333
:102390009DF800009DF801109DF8033042189DF84B
:1023A00002100B441A449DF804309A4201D1307057
:1023B00039700020E1E700000C4810B5416821F0B9
:1023C000F0014160416841F030014160084C00205B
:1023D000C4F8A401142004F5D27407F0B7FA012060
:1023E0002060BDE810401E2007F0CCBA002001405C
:1023F000000024420029016802D041F0010102E0FE
:102400004FF6FE72114001607047000001684FF600
:10241000FE72114001600021016041608160C16075
:102420003149314A0839904203D1486840F00F00E1
:1024300006E02D4A1432904204D1486840F0F00082
:1024400048607047284A2832904203D1486840F4D7
:102450007060F5E7244A3C32904203D1486840F46A
:102460007040EDE7204A5032904203D1486840F472
:102470007020E5E71C4A6432904203D1486840F47A
:102480007000DDE7184A7832904203D1486840F086
:102490007060D5E7154A111F904203D1086840F0DB
:1024A0000F0006E0114A1432904204D1086840F04F
:1024B000F000086070470D4A2832904203D1086846
:1024C00040F47060F5E7094A3C32904203D1086855
:1024D00040F47040EDE7054A50329042EAD1086876
:1024E00040F47020E5E700000800024008040240C4
:1024F00030B5026847F6F0739A430C6A8B68234341
:10250000D1E904452C4323438C692343CC692343FD
:102510004C6A23438C6A234313430360CA684260B6
:102520000A6882604968C16030BD704710B50446D2
:10253000007B012802D12068FDF75EFF00202060AB
:102540006060A060207310BD2DE9F04104460025B5
:1025500000680F462E4610B10220207315E00120BE
:1025600020730846FDF719FF2060002808D0C4E951
:10257000016702E0206846556D1CA068A842F9D8A2
:10258000BDE8F081206846556D1CA068A842F9D8C6
:1025900066608842F4D22660F2E700002DE9F04739
:1025A0001C4690468A468146FEF7AFF9C5B25046B2
:1025B000FEF7ABF9C6B238212046FFF7C5FF206809
:1025C00000285AD01021017060680027401C60600C
:1025D0002168A8190D30487060680322401C6060B3
:1025E0002068877021680320C870606824A1801C5F
:1025F00060602068001DFEF738F960682A46C01C3C
:10260000606021680120C8716068401C60602168BA
:10261000402008726068401C606021684FEA182002
:102620004872216881F80A8060684946801C6060B1
:102630002068C772206805736068801C606020682D
:102640000D30FEF712F96068324628446060216858
:1026500005F10D000F350F542168401C0E546068C1
:102660005146801C606020682844FEF7FEF86068D0
:10267000304460600020BDE8F0870120FBE70000E7
:102680004544500010B504460221FFF75DFF216864
:1026900061B16068C023421C62600B54D4E9003011
:1026A0000022411C61601A54104610BD012010BD6B
:1026B0002DE9FF5F1F4690460D460E9C0098FEF7E1
:1026C00024F9C6B2022F3AD005F118012046FFF7CF
:1026D0003BFF216891B360688022431C63600A5409
:1026E00000984FF055094FF0AA0A4FF0000B70B355
:1026F000022F33D0A9190831A08882B2206806F0D1
:1027000083FA616823680844411CC02261601A543E
:10271000D4E90030421C626003F800B0D4E9002024
:10272000411C61601654D4E9000108443246009906
:10273000FEF79BF860682368304426E00CE05FEA0F
:10274000080005D0FEF7E1F800F10F01BEE70BE04D
:10275000012004B0BDE8F09F0220FAE74046FEF7F2
:10276000D4F841190C31C7E7022F23D0A91DA08846
:1027700082B2206806F048FA616840220844236863
:10278000411C61601A54D4E90030421C626003F8B5
:102790000090D4E90030421C626003F800A0D4E944
:1027A0000020411C61601754C5F30729EEB2022FC7
:1027B00006D031E04046FEF7A8F841190A31D6E7C5
:1027C0004046FEF7A2F8D4E9007101F1010CC4F80B
:1027D00004C007F801B0D4E90031C2B200204F1C98
:1027E00067605A540AE0D4E9007118F8003001F12A
:1027F000010CC4F804C0401C7B54C0B29042F2D318
:10280000D4E90030411C2A0E61601A54D4E900302A
:102810002A0C411C61601A54D4E90030421C6260E9
:1028200003F80090D4E90020411C61601654002098
:102830008FE7C078704700787047000010B580219E
:102840000348FEF7CEF803490020088010BD0000C1
:10285000C1EA0020A402002010B5044600F04CF9A3
:1028600058B90AA10B48FEF712F830B13A21FDF72A
:10287000F2FF002800D0401C10BD052007F066F8CC
:102880002046641EA4B2E9D210BD00004950442C79
:1028900000000000C1EA002038B50121042003F047
:1028A000B5FF10208DF80300ADF800000320334C75
:1028B0008DF802006946204600F030FC002210210D
:1028C000204600F0AEFCFA2007F040F8012210216B
:1028D000204600F0A6FC4FF4FA75284607F036F8BB
:1028E000FFF7ACFF284C26A1204605F0F3FF02E0DD
:1028F000284607F02BF825A125A000F0B5F8002800
:10290000F6D125A1204605F0E5FF02E0284607F0B4
:102910001DF81EA123A000F0A7F80028F6D125A1DC
:10292000204605F0D7FF02E0284607F00FF817A170
:1029300024A000F099F80028F6D126A1204605F041
:10294000C9FF02E0284607F001F825A126A000F003
:102950008BF80028F6D12EA1204605F0BBFF02E03F
:10296000284606F0F3FF2EA12FA000F07DF80028E6
:10297000F6D137A1204605F0ADFF38BD001001406B
:10298000312E2041540D0A00003801404F4B000009
:1029900041540D0A00000000322E2043574D4F4491
:1029A000450D0A0041542B43574D4F44453D310DD1
:1029B0000A000000332E2041542B43574448435013
:1029C0000D0A000041542B4357444843503D312CDD
:1029D000310D0A00342E2043574A41500D0A0000A1
:1029E000474F54204950000041542B43574A41500F
:1029F0003D2254502D4C494E4B5F32353130222C04
:102A000022686C3731366E6975220D0A00000000AD
:102A1000352E2043495053544152540D0A000000B2
:102A2000434F4E4E4543540041542B434950535459
:102A30004152543D22544350222C223138332E32FD
:102A400033302E34302E3339222C3837360D0A00ED
:102A5000362E204553503832363620496E69742060
:102A60004F4B0D0A0000000070B50D460646C82405
:102A7000FDF74BFF82B231460B4805F049FF0EE0EF
:102A800000F03AF840B929460848FDF700FF18B1B0
:102A9000FFF7D4FE002070BD0A2006F057FF641E29
:102AA000E4B2EDD2012070BD00480040C1EA002030
:102AB00030B589B00C460546FFF7C0FE224608A196
:102AC0006846FDF70BFD0AA16846FFF7CDFF002819
:102AD00004D122462946074805F01AFF09B030BD47
:102AE00041542B43495053454E443D25640D0A0043
:102AF0003E000000004800400649088828B14A8886
:102B0000904204D10020088070470120704748801F
:102B1000FBE70000A402002070B5314C0022102118
:102B2000204600F07EFBFA2006F010FF0122102163
:102B3000204600F076FB4FF4FA75284606F006FFB3
:102B4000FFF77CFE294C27A1204605F0C3FE02E0DA
:102B5000284606F0FBFE26A126A0FFF785FF0028E9
:102B6000F6D126A1204605F0B5FE02E0284606F083
:102B7000EDFE1FA124A0FFF777FF0028F6D126A1C4
:102B8000204605F0A7FE02E0284606F0DFFE18A169
:102B900025A0FFF769FF0028F6D127A1204605F000
:102BA00099FE02E0284606F0D1FE26A127A0FFF7F5
:102BB0005BFF0028F6D12FA1204605F08BFE02E036
:102BC000284606F0C3FE2FA130A0FFF74DFF0028D6
:102BD000F6D12046BDE8704036A105F07BBE00006E
:102BE00000100140312E2041540D0A0000380140F0
:102BF0004F4B000041540D0A00000000322E2043CC
:102C0000574D4F44450D0A0041542B43574D4F44F7
:102C1000453D310D0A000000332E2041542B43570F
:102C2000444843500D0A000041542B435744484345
:102C3000503D312C310D0A00342E2043574A41506B
:102C40000D0A0000474F54204950000041542B43C7
:102C5000574A41503D2254502D4C494E4B5F32351E
:102C60003130222C22686C3731366E6975220D0A9C
:102C700000000000352E2043495053544152540D5A
:102C80000A000000434F4E4E4543540041542B432D
:102C9000495053544152543D22544350222C223126
:102CA00038332E3233302E34302E3339222C38370D
:102CB000360D0A00362E204553503832363620491C
:102CC0006E6974204F4B0D0A0000000010B50A20F9
:102CD00006F03CFE0121094800F09AFA012806D1CD
:102CE0000749D1F8A00138B10020C1F8A001BDE822
:102CF0001040012000F0A0B80120F6E700080140D4
:102D00000080214210B50A2006F020FE0421094867
:102D100000F07EFA30B90849D1F8940138B10020AA
:102D2000C1F89401BDE81040042000F085B80120EE
:102D3000F6E70000001801400080214210B50A208B
:102D400006F004FE0821094800F062FA30B908498B
:102D5000D1F8940138B10020C1F89401BDE81040C9
:102D6000082000F069B80120F6E7000000180140D3
:102D70000000234210B50A2006F0E8FD10210948A2
:102D800000F046FA30B90849D1F8940138B1002072
:102D9000C1F89401BDE81040102000F04DB80120AA
:102DA000F6E7000000180140008021423EB50821EE
:102DB000002000F09FF94FF48070002400908DF8FF
:102DC000044008208DF8050001258DF8065068465E
:102DD00000F048F817208DF808008DF809408DF8AC
:102DE0000A408DF80B5002A803F01AF83EBD00000F
:102DF00010B54FF48074204600F024F8012806D165
:102E00000A4B0B4A0021187830B1C2F88C112046C9
:102E1000BDE8104000F010B80648C0F89811012134
:102E2000C0F89811C2F88C111970F0E73200002038
:102E30000080214200802242014908607047000062
:102E400014040140064A014600201268044B0A405F
:102E500014331B680B4202D0002A00D001207047B7
:102E60000004014030B51A4A8379016853B31368EE
:102E70008B431360111D0B680468A3430B60017939
:102E800011440B68046823430B60114B0833196825
:102E90000468A14319601C1D21680568A9432160CD
:102EA0004179102905D011440A68006802430A607C
:102EB00030BD196802681143196021680068014338
:102EC000216030BD0079104402688A43026030BD41
:102ED000000401408000A0F1C0400029016802D038
:102EE00041F0010101E0024A114001607047000019
:102EF000FEFF0F0010B5D0E901121143D0E9032302
:102F00001A4311434269114382691143C269114353
:102F1000026A1143426A1143826A1143C26A114331
:102F2000026B114302689200A2F1C04211608168F5
:102F3000082907D101688900A1F1C0410A6842F05F
:102F400040020A60416BD1E9002342EA03128B6818
:102F50008C891B0243EA04431A430B8A42EA035258
:102F60000B7D896942EA03620A4301688900A1F185
:102F7000C0414A60C16AB1F5804F08D000686FF067
:102F800070418000A0F1C040C0F8041110BD816BF9
:102F9000D1E9002342EA03128B680C8A1B0243EA40
:102FA00004531A430B7D896942EA036200680A43AD
:102FB0008000A0F1C040C0F8042110BD2DE9FC47FD
:102FC0000024494F00944FF0080A019410204FF05C
:102FD0004009C7F800A0C7E901094FF48068C7E9B4
:102FE00003480E462546384603F076FE1020FFF7CC
:102FF00077F800284DD13D4800890004386037201B
:10300000C7E90109C7E90358384603F065FE3720D0
:10301000FFF766F800283CD1411E07F11400C0E913
:10302000001A302181600221C0E9031501214161AC
:1030300003F0FAFD3320C7F80890C7E90050C7E94C
:103040000358384603F048FE3320FFF749F80500DF
:103050001FD1DFF89C804FF4001A6F4640F22A69B6
:10306000D8F8340010EA090F0BD1504603F004FEE3
:103070000028F5D003F02AFE47F82400641C022C37
:10308000EED3082003F0F8FD28B1082003F0B0FDCE
:103090000420BDE8FC87022003F0EEFD20B10220F1
:1030A00003F0A6FD0220F4E7202003F0E5FD20B1A7
:1030B000202003F09DFD0620EBE74FF4007420462E
:1030C00003F0DAFD20B1204603F092FD0720E0E78F
:1030D00040F2FF5003F08CFD009800BA7060019838
:1030E00000BA30602846D4E748320020380000207B
:1030F0000080014010B58A0721F003040649120F31
:1031000021440F238C6893409C438C608B689040D3
:1031100003438B6010BD000000000140F0B5CC7887
:10312000002204F00F03E40601D58C7823430C78C9
:103130004FF00F0C14F0FF0F4FF0010E1BD005687D
:103140000E880EFA02F42640A64210D196000CFA20
:1031500006F725EA070703FA06F5CE783D43282E41
:1031600002D0482E02D002E0446100E00461521C0B
:10317000082AE5D305600A88FF2A1CD94468002282
:1031800002F108060EFA06F50E882E40AE420ED168
:1031900096000CFA06F7BC4303FA06F7CE783C43D8
:1031A000282E00D14561CE78482E00D10561521CF1
:1031B000082AE5D34460F0BDF0B5144C002801DACC
:1031C000E36900E06368450D2E0185B2C0F3015745
:1031D000B540C0F30342032F05D0C6020AD503262B
:1031E0009640B34307E023F07062636823F0706396
:1031F000636002E0AB4343F0706201B12A430028F0
:1032000001DAE261F0BD6260F0BD00000000014043
:103210000246002092680A4200D0012070470161F6
:1032200070470AB1016170474161704730B40C4684
:1032300001461546500700D0012000EBD500684339
:10324000C2B208784B78812809D3402B07D3FF2BD3
:1032500005D0FF2803D07F2B0CD2403B0BE000238E
:10326000184603E05B1C04F8010BDBB29342F9D370
:1032700030BC7047413B8138D9B2C0B2C0EB40137B
:1032800003EB801001EB400050430A490C2D0AD09B
:10329000102D0BD0182DEBD1D1F819100144204678
:1032A00030BC05F0A5BBD1F80910F7E7D1F8111033
:1032B000F4E70000A0EA0020FEE772B6704762B6AD
:1032C000704700007CB5054600211E480091019121
:1032D000008902041C4802600D2242604022C0E9BD
:1032E00002211101016103F0F7FC184C606B0190A1
:1032F000014601E0616B019111F0450FFAD0012008
:1033000003F0BAFC20B1012003F072FC01207CBD67
:10331000042003F0B1FC20B1042003F069FC032079
:103320007CBD20690D2801D010207CBD40F2FF50EB
:1033300003F05EFC60690090C0F343202870002019
:103340007CBD000038000020483200200080014091
:1033500008B50121442003F059FA1C20ADF8000003
:1033600048208DF8030069460648FFF7D7FE012084
:10337000ADF8000028208DF8030069460248FFF7E9
:10338000CDFE08BD001801400008014070B5094994
:103390000646002408884D8821464543204602F011
:1033A0000DF902F0C9FA044801E00680641CAC4241
:1033B000FBD370BD1C2200200008006C2DE9F04FEB
:1033C0002B4B2C27194698712B2589884FF4305A9E
:1033D0004FF4285B4FF4487441F6631E2A264FF0E1
:1033E000F00845F210594FF4A07C4FF4F072C8B1C8
:1033F000A3F800C0A3F80280494533D1A3F808A080
:10340000A3F80AB0280298811C805A80A1F5A64032
:10341000103802D11A80A3F802C0BDE8F04F002096
:1034200002F02AB8A3F80080A3F802C0494507D1EA
:10343000A3F808A0A3F80AB04FF42C50988104E038
:1034400071451F8104D15D819E811A805C8001E0FD
:103450005E819D81A1F5A6401038DED1A3F800C0A1
:103460005A80DAE71F815E8171459D81CCD0CDE71E
:103470001C2200202DE9F047DFF89C9092464A4636
:10348000B9F80460DFF894C093890C0A050A5289E0
:10349000A6F5A0480CF10207B8F5A2680CD0A6F575
:1034A000C858B8F1630816D0ACF800203D80C0B20F
:1034B0003880ACF8003024E0ACF800203D80521C8D
:1034C000ACF80020C0B23880ACF800303C805B1C07
:1034D000ACF8003016E099F8066026B9B9F800504B
:1034E000281A401E80B2ACF80020020A3A80C5B209
:1034F0003D803A80C0B23880ACF800303C80C8B221
:1035000038803C80C8B23880B9F80800ACF80000B8
:10351000A7F800A0BDE8F0871C220020FE07006C81
:103520002DE9F0438146A2EB0900401C1F460C46E2
:1035300085B2DFF83080079E0FE02146484602F052
:103540003DF802F0F9F90020414602E00E80401CEF
:1035500080B2A842FAD3641CA4B2BC42EDD9BDE843
:10356000F08300000008006C2DE9F04F01219FB0AE
:10357000080203F033F901214FF4B47003F046F967
:103580000120ADF83C0010208DF83F0003248DF899
:103590003E400FA9FE48FFF7C1FD4CF23370ADF875
:1035A0003C0018258DF83F508DF83E400FA9F94892
:1035B000FFF7B4FD4FF68070ADF83C008DF83F503A
:1035C0008DF83E400FA9F448FFF7A8FD41F2010035
:1035D000ADF83C008DF83F508DF83E400FA9EF4804
:1035E000FFF79CFD0120179000200F21CDE9180165
:1035F0001A901B901C901D901090CDE9110414900E
:1036000015900621CDE9001016901021CDE9020198
:10361000139004900902CDE90801069005900790E7
:103620008900CDE90A010C9017A80D9010A80E9002
:103630006846FFF75FFC01210620FFF74BFC3220B4
:1036400006F084F9D64CD320208001F0B9FED54D88
:10365000A88001F0B5FE2946888001F0B1FE4FF642
:10366000FF78294608EA0020888001F0A9FE294653
:1036700049F2413A898847F289760843294645F25A
:103680001039888045F2105741F6631B504574D0BD
:103690000420208001F094FEA88001F091FEA88013
:1036A00001F08EFE08EA00204146A88001F088FE65
:1036B000AA881043A0F50542A880523A59D0B042DA
:1036C0005BD0D420208001F07BFEA88001F078FE42
:1036D000A88001F075FE01EA00208846A88001F06C
:1036E0006FFEA9880843A880484546D055214FF46D
:1036F000704002F02BF9AA214FF2010002F026F9E6
:1037000052214FF2020002F021F908214FF203008A
:1037100002F01CF901214FF2040002F017F94FF4F6
:103720004540208001F04CFE08EA0020A8804CF2C1
:1037300001504146208001F043FEAA881043A88032
:10374000B0F5004F7ED0B84217D0A120208001F004
:1037500037FEA88001F034FE01EA0020A88001F0C5
:103760002FFEA9880843A0F5AE41A880613902D098
:1037700003E0AE8001E0A5F804B0A9888AA0FCF7B8
:10378000A1FEA888864DAD1C50457DD1CF2020805C
:1037900000202880C120288030202880ED20208033
:1037A00064202880032028801220288081202880FF
:1037B000E820208085202880102028807A202880FA
:1037C000CB202080392028802C20288000202880B1
:1037D0003420288002202880F72020802020288084
:1037E000EA202080002028802880C02020801B2004
:1037F0002880C120208001202880C5202080302002
:1038000028802880C7202080B7202880362020806C
:10381000482028803A20208055202880B120208010
:10382000002028801A202880B62020800A202880A6
:10383000A2202880F22020800020288026202080BE
:10384000012000E055E02880E02020800F20288023
:103850002A20288028202880082028800E202880E0
:103860000820288054202880A920288043202880F0
:103870000A2028800F202880002028802880288087
:103880002880E120208000E035E0002028801520FD
:1038900028801720288007202880112028800620D3
:1038A00028802B202880562028803C202880052036
:1038B0002880102028800F2028803F202880288002
:1038C0000F2028802B2020800020288028800120A5
:1038D00028803F2028802A202080002028802880DF
:1038E0002880EF20288011202080782006F02EF8F4
:1038F000A0E0AF8041E7B0427ED111202080782047
:1039000006F024F836202080002028803A202080ED
:1039100005202880B22020800C20288028800020CC
:103920002880332028802880B720208035202880D8
:10393000BB20208032202880C02020800C202880BE
:10394000C220208001202880C320208010202880D1
:10395000C420208020202880C62020800F2028809E
:10396000D0202080A4202880A1202880E020208052
:10397000D02028800020288002202880072028804E
:103980000A2028802820288032202880442013E024
:10399000000C0140001401400018014000200140CB
:1039A000FE07006C1C220020204C43442049443A6E
:1039B00025780D0A0000000028804220288006207B
:1039C00028800E202880122028801420288017208C
:1039D0002880E1202080D02028800020288002201C
:1039E0002880072028800A2028802820288031204D
:1039F00028805420288000E01FE0472028800E20E7
:103A000028801C202880172028801B2028801E202A
:103A100028802A2020800020288028802880EF20ED
:103A200028802B20208000202880288001202880CA
:103A30003F202880292001F02DBC48457ED1ED2073
:103A4000208001202880FE202880EE202080DE209B
:103A5000288021202880F120208001202880DF205C
:103A6000208010202880C42020808F202880C6201D
:103A7000208000202880E220288028802880BF2005
:103A80002080AA202880B02020800D2028800020BF
:103A900028800D20288000202880112028800020E8
:103AA00028801920288000202880212028800020BC
:103AB00028802D202880002028803D20288000207C
:103AC00028805D202880002028805D20288000201C
:103AD0002880B120208080202880002028808B2012
:103AE0002880002028809620288000202880B2206E
:103AF0002080002028802880022028800020288024
:103B00000320288000202880B320208000202880E7
:103B10002880288028802880288028802880288065
:103B20002880288028802880288028802880288055
:103B30002880288028802880288000E0FEE32880D4
:103B40002880B42020808B20288000202880962088
:103B5000288000202880A120288000202880B520EF
:103B60002080022028800020288003202880002038
:103B700028800420288000202880B6202080002073
:103B800028802880B72020800020288028803F209F
:103B90002880002028805E20288000202880642043
:103BA0002880002028808C20288000202880AC20BD
:103BB000288000202880DC20288000202880702099
:103BC0002880002028809020288000202880EB205A
:103BD000288000202880DC20288000202880B82031
:103BE0002080002028802880288028802880288025
:103BF00028802880BA202080242028800020288047
:103C000028802880C1202080202028800020288033
:103C10005420288000202880FF2028800020288031
:103C2000C22020800A2028800020288004202880AC
:103C300000202880C32020803C202880002028806D
:103C40003A202880002028803920288000202880E1
:103C500037202880002028803C20288000202880D1
:103C600036202880002028803220288000202880CC
:103C70002F202880002028802C20288000202880C9
:103C800029202880002028802620288000202880C5
:103C900024202880002028802420288000202880BC
:103CA00023202880002028803C2028800020288095
:103CB000362028800020288032202880002028807C
:103CC0002F202880002028802C2028800020288079
:103CD0002920288000202880262028800020288075
:103CE000242028800020288024202880002028806C
:103CF0002320288000202880C42020806220288063
:103D0000002028800520288000202880842028800A
:103D100000202880F020288000202880182028807B
:103D200000202880A42028800020288018202880B7
:103D30000020288050202880002028800C20288007
:103D400000202880172028800020288095202880A7
:103D500000202880F320288000202880E62028806A
:103D600000202880C5202080322028800020288044
:103D7000442028800020288065202880002028807A
:103D80007620288000202880882028800020288015
:103D9000C62020802020288000202880172028800E
:103DA000002028800120288000202880C720208033
:103DB00000202880288028802880C820208000209B
:103DC0002880288028802880C92020800020288002
:103DD00028802880288028802880288028802880A3
:103DE0002880288028802880288028802880E0203B
:103DF000208016202880002028801C202880002079
:103E0000288021202880002028803620288000203B
:103E100028804620288000202880522028800020EA
:103E2000288064202880002028807A202880002094
:103E300028808B202880002028809920288000203E
:103E40002880A820288000202880B92028800020F1
:103E50002880C420288000202880CA2028800020B4
:103E60002880D220288000202880D9202880002087
:103E70002880E020288000202880F320288000204F
:103E80002880E120208016202880002028801C2007
:103E900028800020288022202880002028803620AA
:103EA000288000202880452028800020288052205B
:103EB00028800020288064202880002028807A2004
:103EC0002880002028808B202880002028809920AE
:103ED000288000202880A820288000202880B92061
:103EE000288000202880C420288000202880CA2024
:103EF000288000202880D220288000202880D820F8
:103F0000288000202880E020288000202880F320BE
:103F1000288000202880E2202080052028800020A2
:103F200028800B202880002028801B20288000204B
:103F300028803420288000202880442028800020E9
:103F400028804F20288000202880612028800020A1
:103F50002880792028800020288088202880002040
:103F600028809720288000202880A62028800020F4
:103F70002880B720288000202880C22028800020A8
:103F80002880C720288000202880D1202880002079
:103F90002880D620288000202880DD20288000204E
:103FA0002880F320288000202880E320208005201E
:103FB0002880002028800A202880002028801C20BB
:103FC000288000202880332028800020288044205A
:103FD000288000202880502028800020288062200F
:103FE00028800020288078202880002028808820B1
:103FF0002880002028809720288000202880A62064
:10400000288000202880B720288000202880C22017
:10401000288000202880C720288000202880D120E8
:10402000288000202880D520288000202880DD20BE
:10403000288000202880F320288000202880E42089
:104040002080012028800020288001202880002056
:10405000288002202880002028802A202880002014
:1040600028803C202880002028804B2028800020A9
:1040700028805D202880002028807420288000204F
:1040800028808420288000202880932028800020F9
:104090002880A220288000202880B32028800020AB
:1040A0002880BE20288000202880C420288000206E
:1040B0002880CD20288000202880D3202880002040
:1040C0002880DD20288000202880F3202880002000
:1040D0002880E520208000202880288028802880D3
:1040E0000220288000202880292028800020288085
:1040F0003C202880002028804B2028800020288019
:104100005D202880002028807420288000202880BE
:104110008420288000202880932028800020288068
:10412000A220288000202880B3202880002028801A
:10413000BE20288000202880C420288000202880DD
:10414000CD20288000202880D320288000202880AF
:10415000DC20288000202880F32028800020288070
:10416000E62020801120288000202880342028800C
:104170000020288056202880002028807620288053
:104180000020288077202880002028806620288032
:1041900000202880882028800020288099202880DE
:1041A00000202880BB20288000202880992028809B
:1041B0000020288066202880002028805520288024
:1041C0000020288055202880002028804520288035
:1041D0000020288043202880002028804420288038
:1041E00000202880E720208032202880002028809E
:1041F00055202880002028807620288000202880D4
:1042000066202880002028806720288000202880C1
:104210006720288000202880872028800020288090
:104220009920288000202880BB202880002028801A
:10423000992028800020288077202880002028804E
:1042400044202880002028805620288000202880B4
:1042500023202880002028803320288000202880E8
:104260004520288000202880E82020800020288009
:1042700028809920288000202880872028800020FE
:10428000288088202880002028807720288000200F
:104290002880662028800020288088202880002010
:1042A0002880AA20288000202880BB202880002089
:1042B00028809920288000202880662028800020DF
:1042C0002880552028800020288055202880002024
:1042D0002880442028800020288044202880002036
:1042E00028805520288000202880E9202080AA20CE
:1042F000288000202880288028802080AA202880EC
:10430000CF202080002028802880288028802880B6
:10431000288028802880288028802880288028805D
:104320002880288028802880F02020800020288075
:104330005020288000202880288000E02BE0288062
:10434000F320208000202880F9202080062028806B
:104350001020288029202880002028803A202080D2
:104360005520288011202080642005F0EFFA2920B4
:104370002080352020800020288051202080FF20B0
:104380002880532020802C202880552020808220C7
:1043900028802C20FEE3B8427ED14FF4704955218D
:1043A000484601F0D3FA4FF20103AA21184601F062
:1043B000CDFA4FF202055221284601F0C7FA6E1CD1
:1043C0000821304601F0C2FAAF1C0121384601F045
:1043D000BDFA0D214FF4304001F0B8FA0D214BF237
:1043E000010001F0B3FA0D214BF2020001F0AEFA28
:1043F0004FF4364A3421504601F0A8FA34214BF2EA
:10440000016001F0A3FA34214BF2026001F09EFA40
:104410004FF4314B0D21584601F098FA0D214BF223
:10442000011001F093FA0D214BF2021001F08EFA07
:1044300034214FF4374001F089FA34214BF20170F6
:1044400001F084FA34214BF2027001F07FFA00216E
:104450004FF4324001F07AFA00214BF2012001F0D2
:1044600075FA00214BF2022001F070FA24214FF47A
:10447000384001F06BFA24214BF6010001F066FA96
:1044800024214BF6020001F061FA01214FF43F4074
:1044900001F05CFA0F2100E0FEE34FF4334001F03D
:1044A00055FA0F214BF2013001F050FA0F214BF277
:1044B000023001F04BFA34214FF4394001F046FA52
:1044C00034214BF6011001F041FA34214BF6021071
:1044D00001F03CFA08214FF4354001F037FA082189
:1044E0004BF2015001F032FA08214BF2025001F078
:1044F0002DFA03214FF4424001F028FA24214FF411
:104500003A4001F023FA24214BF6012001F01EFA73
:1045100024214BF6022001F019FA00214FF43C400F
:1045200001F014FA78214BF6014001F00FFA002156
:104530004BF6024001F00AFA00214FF43D4001F031
:1045400005FA78214BF6015001F000FA00214BF6F4
:10455000025001F0FBF900214FF43E4001F0F6F962
:1045600064214BF6016001F0F1F900214FF4514054
:1045700001F0ECF933214DF2011001F0E7F90021CF
:104580004DF2021001F0E2F934214DF2031001F076
:10459000DDF900214DF2041001F0D8F93A214DF275
:1045A000051001F0D3F900214DF2061001F0CEF90B
:1045B0004A214DF2071001F0C9F900214DF208100F
:1045C00001F0C4F95C214DF2091001F0BFF900219E
:1045D0004DF20A1001F0BAF981214DF20B1001F0F1
:1045E000B5F900214DF20C1001F0B0F9A6214DF201
:1045F0000D1001F0ABF900214DF20E1001F0A6F9FB
:10460000E5214DF20F1001F0A1F901214DF210103A
:1046100001F09CF913214DF2111001F097F90121DD
:104620004DF2121001F092F954214DF2131001F0E5
:104630008DF901214DF2141001F088F982214DF21B
:10464000151001F083F901214DF2161001F07EF9E9
:10465000CA214DF2171001F079F902214DF218101C
:1046600001F074F900214DF2191001F06FF90221E7
:104670004DF21A1001F06AF901214DF21B1001F000
:1046800065F902214DF21C1001F060F934214DF260
:104690001D1001F05BF902214DF21E1001F056F9D8
:1046A00067214DF21F1001F051F902214DF2201047
:1046B00001F04CF984214DF2211001F047F902215B
:1046C0004DF2221001F042F9A4214DF2231001F025
:1046D0003DF902214DF2241001F038F9B7214DF2D5
:1046E000251001F033F902214DF2261001F02EF9C8
:1046F000CF214DF2271001F029F902214DF22810A7
:1047000001F024F9DE214DF2291001F01FF90221F8
:104710004DF22A1001F01AF9F2214DF22B1001F09E
:1047200015F902214DF22C1001F010F9FE214DF285
:104730002D1001F00BF903214DF22E1001F006F9B6
:1047400010214DF22F1001F001F903214DF230102C
:1047500001F0FCF833214DF2311001F0F7F803219C
:104760004DF2321001F0F2F86D214DF2331001F0EC
:10477000EDF800214FF4524001F0E8F833214DF2FA
:10478000012001F0E3F800214DF2022001F0DEF8F3
:1047900034214DF2032001F0D9F800214DF204201C
:1047A00001F0D4F83A214DF2052001F0CFF80021B4
:1047B0004DF2062001F0CAF84A214DF2072001F01F
:1047C000C5F800214DF2082001F0C0F85C214DF23F
:1047D000092001F0BBF800214DF20A2001F0B6F8E3
:1047E00081214DF20B2001F0B1F800214DF20C2097
:1047F00001F0ACF8A6214DF20D2001F0A7F8002140
:104800004DF20E2001F0A2F8E5214DF20F2001F04B
:104810009DF801214DF2102001F098F813214DF27E
:10482000112001F093F801214DF2122001F08EF8D1
:1048300054214DF2132001F089F801214DF214208A
:1048400001F084F882214DF2152001F07FF801215A
:104850004DF2162001F07AF8CA214DF2172001F02E
:1048600075F802214DF2182001F070F800214DF288
:10487000192001F06BF802214DF21A2001F066F8C0
:1048800001214DF21B2001F061F802214DF21C20A4
:1048900001F05CF834214DF21D2001F057F802219F
:1048A0004DF21E2001F052F867214DF21F2001F059
:1048B0004DF802214DF2202001F048F884214DF2FC
:1048C000212001F043F802214DF2222001F03EF8B0
:1048D000A4214DF2232001F039F802214DF22420C9
:1048E00001F034F8B7214DF2252001F02FF8022114
:1048F0004DF2262001F02AF8CF214DF2272001F0B9
:1049000025F802214DF2282001F020F8DE214DF299
:10491000292001F01BF802214DF22A2001F016F89F
:10492000F2214DF22B2001F011F802214DF22C2042
:1049300001F00CF8FE214DF22D2001F007F80321C3
:104940004DF22E2001F002F810214DF22F2000F040
:10495000FDFF03214DF2302000F0F8FF33214DF22E
:10496000312000F0F3FF03214DF2322000F0EEFF82
:104970006D214DF2332000F0E9FF00214FF4534048
:1049800000F0E4FF33214DF2013000F0DFFF0021A1
:104990004DF2023000F0DAFF34214DF2033000F026
:1049A000D5FF00214DF2043000F0D0FF3A214DF246
:1049B000053000F0CBFF00214DF2063000F0C6FFBD
:1049C0004A214DF2073000F0C1FF00214DF20830BE
:1049D00000F0BCFF5C214DF2093000F0B7FF002170
:1049E0004DF20A3000F0B2FF81214DF20B3000F0A1
:1049F000ADFF00214DF20C3000F0A8FFA6214DF2D2
:104A00000D3000F0A3FF00214DF20E3000F09EFFAC
:104A1000E5214DF20F3000F099FF01214DF21030E9
:104A200000F094FF13214DF2113000F08FFF0121AF
:104A30004DF2123000F08AFF54214DF2133000F095
:104A400085FF01214DF2143000F080FF82214DF2EC
:104A5000153000F07BFF01214DF2163000F076FF9B
:104A6000CA214DF2173000F071FF02214DF21830CB
:104A700000F06CFF00214DF2193000F067FF0221B9
:104A80004DF21A3000F062FF01214DF21B3000F0B0
:104A90005DFF02214DF21C3000F058FF34214DF231
:104AA0001D3000F053FF02214DF21E3000F04EFF8A
:104AB00067214DF21F3000F049FF02214DF22030F6
:104AC00000F044FF84214DF2213000F03FFF02212D
:104AD0004DF2223000F03AFFA4214DF2233000F0D5
:104AE00035FF02214DF2243000F030FFB7214DF2A6
:104AF000253000F02BFF02214DF2263000F026FF7A
:104B0000CF214DF2273000F021FF02214DF2283055
:104B100000F01CFFDE214DF2293000F017FF0221CA
:104B20004DF22A3000F012FFF2214DF22B3000F04E
:104B30000DFF02214DF22C3000F008FFFE214DF256
:104B40002D3000F003FF03214DF22E3000F0FEFE69
:104B500010214DF22F3000F0F9FE03214DF23030DC
:104B600000F0F4FE33214DF2313000F0EFFE03216E
:104B70004DF2323000F0EAFE6D214DF2333000F09C
:104B8000E5FE00214FF4544000F0E0FE33214DF2E9
:104B9000014000E07EE300F0D9FE00214DF202402A
:104BA00000F0D4FE34214DF2034000F0CFFE00218E
:104BB0004DF2044000F0CAFE3A214DF2054000F0EB
:104BC000C5FE00214DF2064000F0C0FE4A214DF224
:104BD000074000F0BBFE00214DF2084000F0B6FE99
:104BE0005C214DF2094000F0B1FE00214DF20A4077
:104BF00000F0ACFE81214DF20B4000F0A7FE002139
:104C00004DF20C4000F0A2FEA6214DF20D4000F046
:104C10009DFE00214DF20E4000F098FEE5214DF280
:104C20000F4000F093FE01214DF2104000F08EFE87
:104C300013214DF2114000F089FE01214DF2124086
:104C400000F084FE54214DF2134000F07FFE01215C
:104C50004DF2144000F07AFE82214DF2154000F032
:104C600075FE01214DF2164000F070FECA214DF292
:104C7000174000F06BFE02214DF2184000F066FE76
:104C800000214DF2194000F061FE02214DF21A4060
:104C900000F05CFE012100E0FEE24DF21B4000F05E
:104CA00055FE02214DF21C4000F050FE34214DF221
:104CB0001D4000F04BFE02214DF21E4000F046FE6A
:104CC00067214DF21F4000F041FE02214DF22040CD
:104CD00000F03CFE84214DF2214000F037FE02211D
:104CE0004DF2224000F032FEA4214DF2234000F0AC
:104CF0002DFE02214DF2244000F028FEB7214DF296
:104D0000254000F023FE02214DF2264000F01EFE59
:104D1000CF214DF2274000F019FE02214DF228402C
:104D200000F014FEDE214DF2294000F00FFE0221BA
:104D30004DF22A4000F00AFEF2214DF22B4000F025
:104D400005FE02214DF22C4000F000FEFE214DF246
:104D50002D4000F0FBFD03214DF22E4000F0F6FD4A
:104D600010214DF22F4000F0F1FD03214DF23040B3
:104D700000F0ECFD33214DF2314000F0E7FD03215E
:104D80004DF2324000F0E2FD6D214DF2334000F073
:104D9000DDFD00214FF4554000F0D8FD33214DF2E8
:104DA000015000F0D3FD00214DF2025000F0CEFD85
:104DB00034214DF2035000F0C9FD00214DF20450A2
:104DC00000F0C4FD3A214DF2055000F0BFFD002176
:104DD0004DF2065000F0BAFD4A214DF2075000F0A6
:104DE000B5FD00214DF2085000F0B0FD5C214DF200
:104DF000095000F0ABFD00214DF20A5000F0A6FD75
:104E000081214DF20B5000F0A1FD00214DF20C501C
:104E100000F09CFDA6214DF20D5000F097FD002101
:104E20004DF20E5000F092FDE5214DF20F5000F0D2
:104E30008DFD01214DF2105000F088FD13214DF23F
:104E4000115000F083FD01214DF2125000F07EFD63
:104E500054214DF2135000F079FD01214DF2145010
:104E600000F074FD82214DF2155000F06FFD01211C
:104E70004DF2165000F06AFDCA214DF2175000F0B5
:104E800065FD02214DF2185000F060FD00214DF249
:104E9000195000F05BFD02214DF21A5000F056FD52
:104EA00001214DF21B5000F051FD02214DF21C502A
:104EB00000F04CFD34214DF21D5000F047FD022161
:104EC0004DF21E5000F042FD67214DF21F5000F0E0
:104ED0003DFD02214DF2205000F038FD84214DF2BD
:104EE000215000F033FD02214DF2225000F02EFD42
:104EF000A4214DF2235000F029FD02214DF224504F
:104F000000F024FDB7214DF2255000F01FFD0221D5
:104F10004DF2265000F01AFDCF214DF2275000F03F
:104F200015FD02214DF2285000F010FDDE214DF25A
:104F3000295000F00BFD02214DF22A5000F006FD31
:104F4000F2214DF22B5000F001FD02214DF22C50C8
:104F500000F0FCFCFE214DF22D5000F0F7FC032187
:104F60004DF22E5000F0F2FC10214DF22F5000F0C7
:104F7000EDFC03214DF2305000F0E8FC33214DF2FE
:104F8000315000F0E3FC03214DF2325000F0DEFC22
:104F90006D214DF2335000F0D9FC00214FF4564002
:104FA00000F0D4FC33214DF2016000F0CFFC002171
:104FB0004DF2026000F0CAFC34214DF2036000F0B3
:104FC000C5FC00214DF2046000F0C0FC3A214DF216
:104FD000056000F0BBFC00214DF2066000F0B6FC5D
:104FE0004A214DF2076000F0B1FC00214DF208604B
:104FF00000F0ACFC5C214DF2096000F0A7FC002140
:105000004DF20A6000F0A2FC81214DF20B6000F02D
:105010009DFC00214DF20C6000F098FCA6214DF2A1
:105020000D6000F093FC00214DF20E6000F08EFC4C
:10503000E5214DF20F6000F089FC01214DF2106076
:1050400000F084FC13214DF2116000F07FFC01217F
:105050004DF2126000F07AFC54214DF2136000F022
:1050600075FC01214DF2146000F070FC82214DF2BC
:10507000156000F06BFC01214DF2166000F066FC3B
:10508000CA214DF2176000F061FC02214DF2186058
:1050900000F05CFC00214DF2196000F057FC022189
:1050A0004DF21A6000F052FC01214DF21B6000F03D
:1050B0004DFC02214DF21C6000F048FC34214DF201
:1050C0001D6000F043FC02214DF21E6000F03EFC2A
:1050D00067214DF21F6000F039FC02214DF2206083
:1050E00000F034FC84214DF2216000F02FFC0221FD
:1050F0004DF2226000F02AFCA4214DF2236000F062
:1051000025FC02214DF2246000F020FCB7214DF275
:10511000256000F01BFC02214DF2266000F016FC19
:10512000CF214DF2276000F011FC02214DF22860E2
:1051300000F00CFCDE214DF2296000F007FC02219A
:105140004DF22A6000F002FCF2214DF22B6000F0DB
:10515000FDFB02214DF22C6000F0F8FBFE214DF228
:105160002D6000F0F3FB03214DF22E6000F0EEFB0A
:1051700010214DF22F6000F0E9FB03214DF2306069
:1051800000F0E4FB33214DF2316000F0DFFB03213E
:105190004DF2326000F0DAFB6D214DF2336000F029
:1051A000D5FB5521484600F0D1FBAA21184600F056
:1051B000CDFB5221284600F0C9FB0821304600F003
:1051C000C5FB0021384600F0C1FBCC21584600F059
:1051D000BDFB00214BF2011000F0B8FB0521504649
:1051E00000F0B4FB70214FF4374000F0AFFB7021AA
:1051F0004BF2017000F0AAFB01214FF4384000F09F
:10520000A5FB03214BF6010000F0A0FB03214BF6A8
:10521000020000F09BFB03214BF6030000F096FB1D
:1052200002214FF43C4000F091FB00214BF601407D
:1052300000F08CFB00214BF6024000F087FBD021F0
:105240004FF4494000F082FB02214CF6011000F0BF
:105250007DFB50214CF6021000F078FB50214CF6FB
:10526000031000F073FB50214CF6041000F06EFBAD
:1052700000214FF4545000F069FB55214FF4685061
:1052800000F064FB4FF488502080782004F07AFB13
:105290004FF4245020807BE0584579D1E2202080D3
:1052A0001D2028800220288004202880642004F00B
:1052B00069FBE0202080012028800A2004F046FBC2
:1052C000E0202080032028800C2004F03FFB0120F8
:1052D00020800A2004F03AFBE62020802F2028803E
:1052E000FF2028802880B0202080202028800020D7
:1052F00028800320288040F21F3028800120288049
:1053000040F2DF10288000202880B4202080042074
:10531000288040F21F402880002028802E202880EE
:1053200000202880288028802880B6202080022025
:1053300028804FF4037028800020288017202880C0
:1053400015202880002028802880F020208003203D
:10535000288029202080D020208000202880BE2086
:10536000208005202880FE20288001202880002021
:10537000288028802880B8202080032028800120D1
:105380002880BA20208001202880642000F056F870
:105390000020FEF713F805490120C1F880014046BE
:1053A000FDF7F4FF1FB0BDE8F08F00000080214240
:1053B0000346012000E05843491EC9B2FBD27047A2
:1053C000034808B50088ADF80000BDF8000008BD2E
:1053D0000008006C10B5174C2288824202D96288FE
:1053E0008A4201D8002010BD00F0E8F8A0881249D8
:1053F000A0F5AA42103A1AD02E200880FFF7E0FF4D
:10540000A188A1F5C852633AEDD0FFF7D9FF014654
:10541000FFF7D6FFCAB24FF6FF7303EA02226FF31B
:105420000A01920A41EA421141EAD02010BD4FF42C
:105430003850E2E71C220020FE07006C0C4A10B531
:10544000BE211180941C052121800BF07CF84FF0C7
:105450006632084B0BF08AF80BF048F820800120E8
:105460002080FF20208000202080208010BD0000B0
:10547000FE07006C6666044070B54E4D0023294659
:10548000AA79898841F66314012A01D01AB11BE078
:10549000A14202D118E0A14216D1082814D2DFE8B7
:1054A00000F00406080A0C0E101206200CE007207B
:1054B0000AE0042008E0052006E0012004E00020C6
:1054C00002E0032000E00220082812D2DFE800F00A
:1054D000110406080A0C0E1080230AE0402308E09D
:1054E000C02306E0202304E0602302E0A02300E0C4
:1054F000E02345F21056B14202D14FF4585000E07B
:105500003620A1F51342413A03D0A1F5EE42893A83
:1055100001D143F00803194600F018FAAA88A24204
:105520000AD098062888698802D5884202D303E009
:10553000884201D9298068801F48811CB2426A894B
:10554000028021D100230B80531C038000230B8099
:10555000931C03802B885B1E1C0A0C80D21C0280CB
:10556000DAB20A80AA89028000230B80531C0380D0
:1055700000230B80931C03806B885B1E1C0A0C802D
:10558000D21C0280D8B212E000220A800A802A8847
:10559000521E130A0B80D2B20A80AA890280002010
:1055A000088008806888401E020A0A80C0B208800D
:1055B00070BD00001C220020FE07006C2DE9F043A6
:1055C000DFF8A490294F4A46B9F804C09389050A28
:1055D0000C0ABE1C5289ACF5C858B8F163080ED04D
:1055E000ACF5A048B8F5A2683A80358033D0C0B297
:1055F00030803B803480C8B23080BDE8F083DFF873
:1056000068C099F80680BCF800C0B8F1000F16D049
:105610003A803580C0B23080ACF1010C4FEA1C20DA
:1056200030800CF0FF0030803B803480C8B2308086
:10563000B9F80200401E010A3180C0B2DCE7ACEBD1
:105640000000401E80B23A80002232803280020A7E
:105650003280C0B2E7E7521C3A80C0B230803B8053
:1056600034805B1C3B80C6E71C220020FE07006CD8
:105670002DE9FF4F83185B1E1FFA83FA039B464EEA
:105680000B44A3F101083346B788DFF810E19C8989
:105690000D0A5B89A7F5C85C1FFA88F90EF1020BA9
:1056A000BCF1630C29D196F806C0BCF1010F24D0DF
:1056B00036881FFA88F7B61A301A86B2AEF800306C
:1056C000330A5846ABF80030F3B2ABF8003032443E
:1056D000521E130AABF80030D2B2ABF80020AEF87D
:1056E0000040ABF80050C9B2ABF80010390AABF873
:1056F0000010F9B20180BDE8FF8F0244521EC2F3D0
:105700000728039AA7F5A04C0A44521E060AC2F3C2
:105710000722BCF5A26C7746AEF8003017D0ABF884
:105720000060C0B2ABF80000ABF800800AF0FF00E8
:10573000ABF800003C80ABF80050C8B2ABF80000FA
:10574000ABF8002009F0FF00ABF80000D3E7DC461F
:10575000ABF800605E1C3E80C0B2ABF80000981C45
:105760003880ABF80080DB1C3B800AF0FF00ABF810
:1057700000003C80ABF80050601C3880C8B2ACF828
:105780000000A01C3880ACF80020E41C3C8009F02C
:10579000FF00ACF80000AEE71C220020FE07006C02
:1057A0002DE9F84F82461F460C468B46580700D01D
:1057B000012000EBD70079084843203AC0B202F03C
:1057C000FF090026009041E00C2F10D0102F12D0BE
:1057D000182F3ED1204909EBC90001EB80004FF0A2
:1057E0000008855D28060AD51C4802880BE009EBF5
:1057F00049001B49F1E71B4901EB0910EFE70A9843
:1058000028B91648428821465046FDF733FE6806FF
:10581000050E1548641CA4B24088A04219D9A4EB17
:105820000B00B84209D10AF101001FFA80FA0E48B4
:105830005C46018851450CD906E008F1010000F0F2
:10584000FF08B8F1080FCDD3761CF6B20098864257
:10585000BAD3BDE8F88F0000C21C01082E0000205A
:105860005E120108D21601081C2200202DE9FF4F0C
:1058700081B00027DDF838B01D46924680463C4690
:105880004FF001094FEA5B0627E0281B401EC1B21A
:105890000A20FFF78DFDBAFBF0F00A21B0FBF1F210
:1058A00001FB120027B9691E8C4201DA48B10127B9
:1058B0003030C2B206FB048080B25B46CDF8009067
:1058C00006E006FB048080B25B462022CDF8009003
:1058D0000299FFF765FF641CE4B2AC42D5D305B072
:1058E000BDE8F08F2DE9F84F044600F0FF081019CD
:1058F0000D46DDE90A761FFA80FA58191FFA80F979
:105900004FF0010B11E0544502D3E819444685B22B
:105910004D450FD23B4629462046CDF800B0FFF753
:105920003FFF04EB570084B2761C3278A2F12000CE
:105930005E28E8D9BDE8F88F02480349008908804D
:10594000704700001C220020FE07006C024A1080F5
:10595000901C018070470000FE07006C38B50121E3
:10596000482000F053FF2024ADF8004010208DF8AF
:10597000030003200B4D8DF8020069462846FDF711
:10598000CDFB20212846FDF74AFCADF80040064C2F
:1059900069462046FDF7C2FB20212046FDF73FFC6B
:1059A00038BD0000000C01400018014070B50D4CDE
:1059B0000025C4F898510C48016821F0704101603D
:1059C000016841F040510160C4F89C51022004F587
:1059D000CC7403F0D7FF01202060022003F0D2FF37
:1059E000256070BD00802142000C014038B50121C6
:1059F000082000F00BFFC020ADF8000010208DF84B
:105A000003000320054C8DF8020069462046FDF78F
:105A100085FBC0212046FDF702FC38BD000C01408B
:105A200070B50D4C0026C4F898610C48016821F04F
:105A300070410160016841F0405101600125C4F8E6
:105A40009C51022004F5CC7403F09CFF25600220D9
:105A500003F098FF266070BD00802142000C0140D9
:105A60002DE9F047814617480024016821F0704174
:105A70000160016841F000410160134E2546274650
:105A80004FF00108C6F89871022003F07BFFC6F8BA
:105A900098816006040ED6F81C0108B1641CE4B2BB
:105AA000022003F06FFF6D1CEDB2082DEAD3B9F1AF
:105AB000000F04D0FFF77AFF2046BDE8F087FFF71C
:105AC000AFFFF9E7000C0140008021422DE9F041D1
:105AD00005461248016821F070410160016841F0FB
